
> argonath-backend@1.0.0 start
> node src/index.js

Argonath backend running on http://localhost:3001
[POST /claims] body reçu: {"first_name":"Aina","last_name":"Raheri","phone":"+33767190110","bond_type":"Bon du Trésor","nominal_amount":"50000","rate":"5","maturity_date":"2026-12-12","batch_id":"BT-TEST-1774179797193"}
[hcs] ✓ allocation_created publié
[authorize-test] phone: +33767190110 wallet: 0x898d4234E7f7b27A568f7966a714b73e50e10315
[authorizeClaimsOnChain] registryAddress: 0xE0138399F66aeD2e178A7e9CE6b58F0d6fAb244B
[authorizeClaimsOnChain] claims trouvés: 9
[otp] authorize(0x4c01196c0ff456f6ccebba1526c275f15042eca795ea9329db041d811cae32f4, 0x898d4234E7f7b27A568f7966a714b73e50e10315) OK — batch BT-TEST-001
[otp] authorize(0x487482406592444f653756818abdc8e9cefb07a05b5db09a2ebc5ca71d9d31b2, 0x898d4234E7f7b27A568f7966a714b73e50e10315) OK — batch BT-UI-TEST-1774093930
[otp] authorize(0xd5dbb7a799272fb89ede5a881bdc0460f5bf3f5f8987037c338f36739ab167f3, 0x898d4234E7f7b27A568f7966a714b73e50e10315) OK — batch BT-DEBUG-001
[otp] authorize(0xfab387cd6afa83c558f97e7c4cd997083161945f7bdb72db4da36c021f7f127c, 0x898d4234E7f7b27A568f7966a714b73e50e10315) OK — batch BT-TEST-1774098023277
[otp] authorize(0x40257403247ae009a3ef80f69c92671f8bacc99071e5e83f8692d3ce97fcb940, 0x898d4234E7f7b27A568f7966a714b73e50e10315) OK — batch BT-TEST-1774099374424
[authorize-test] phone: +33767190110 wallet: 0x898d4234E7f7b27A568f7966a714b73e50e10315
[authorizeClaimsOnChain] registryAddress: 0xE0138399F66aeD2e178A7e9CE6b58F0d6fAb244B
[authorizeClaimsOnChain] claims trouvés: 9
[otp] authorize failed pour BT-TEST-001: nonce has already been used (transaction="0x02f8b6820128608601176592e0008601176592e000830493e094e0138399f66aed2e178a7e9ce6b58f0d6fab244b80b8444d89084b4c01196c0ff456f6ccebba1526c275f15042eca795ea9329db041d811cae32f4000000000000000000000000898d4234e7f7b27a568f7966a714b73e50e10315c080a0e1c1dd8796923a888c0308d7ffb52379189a2fc69f95c50736ae1f8314ce0618a0057b62a33991990294d0808fef928157a5b5d3d3cfec70f840946febb7114fbe", info={ "error": { "code": 32001, "message": "[Request ID: c7f2ab6e-f52f-404f-9429-d10a18e4249b] Nonce too low. Provided nonce: 96, current nonce: 97" } }, code=NONCE_EXPIRED, version=6.16.0)
[otp] authorize(0xf24b6683a03f9aaf6dc34be68f3ade61faad2b719606266d4238648dea44bed5, 0x898d4234E7f7b27A568f7966a714b73e50e10315) OK — batch BT-TEST-1774165674183
[otp] authorize failed pour BT-UI-TEST-1774093930: nonce has already been used (transaction="0x02f8b6820128608601176592e0008601176592e000830493e094e0138399f66aed2e178a7e9ce6b58f0d6fab244b80b8444d89084b487482406592444f653756818abdc8e9cefb07a05b5db09a2ebc5ca71d9d31b2000000000000000000000000898d4234e7f7b27a568f7966a714b73e50e10315c080a0f38ca1d58ce20b9f2b85b4b87463f5526824d4dcf7a1960111efbb9e65ca6d60a02eb0ee5fb3e80b0f73b9003988b660b1eda11c665a5faae2fcb25a745e0c7206", info={ "error": { "code": 32001, "message": "[Request ID: 4d7c6b95-8661-4fd4-934d-b04a228a31f3] Nonce too low. Provided nonce: 96, current nonce: 97" } }, code=NONCE_EXPIRED, version=6.16.0)
[otp] authorize failed pour BT-DEBUG-001: nonce has already been used (transaction="0x02f8b6820128608601176592e0008601176592e000830493e094e0138399f66aed2e178a7e9ce6b58f0d6fab244b80b8444d89084bd5dbb7a799272fb89ede5a881bdc0460f5bf3f5f8987037c338f36739ab167f3000000000000000000000000898d4234e7f7b27a568f7966a714b73e50e10315c080a0e5adefbdca9a3c94fab1abb81070c691a873baa8a49f9a74a0c8823bf4af4237a05c4948689c769493765ed40b1f4efd2157a012d675740900efb4cebcf830ac57", info={ "error": { "code": 32001, "message": "[Request ID: fd8a5b8f-eef9-46d0-b24c-91fd373f69c6] Nonce too low. Provided nonce: 96, current nonce: 97" } }, code=NONCE_EXPIRED, version=6.16.0)
[otp] authorize failed pour BT-TEST-1774098023277: nonce has already been used (transaction="0x02f8b6820128608601176592e0008601176592e000830493e094e0138399f66aed2e178a7e9ce6b58f0d6fab244b80b8444d89084bfab387cd6afa83c558f97e7c4cd997083161945f7bdb72db4da36c021f7f127c000000000000000000000000898d4234e7f7b27a568f7966a714b73e50e10315c080a0996a8e6d857cf3714e9ca0a9314ea0f38f74f54487e7843ebe670347284894eaa018d81c107f1ea2d6c0178e78648932a5223e896f2968c8257e5aec13ecef8f00", info={ "error": { "code": 32001, "message": "[Request ID: b62c79c8-9922-4184-b7da-c4727b08d53c] Nonce too low. Provided nonce: 96, current nonce: 98" } }, code=NONCE_EXPIRED, version=6.16.0)
[otp] authorize(0x7a022c9a3a8dcfe020ce4622d679c56a2adb4eeb3a78b03f71e2fceec5d6405b, 0x898d4234E7f7b27A568f7966a714b73e50e10315) OK — batch BT-TEST-1774165920597
[otp] authorize failed pour BT-TEST-1774099374424: nonce has already been used (transaction="0x02f8b6820128608601176592e0008601176592e000830493e094e0138399f66aed2e178a7e9ce6b58f0d6fab244b80b8444d89084b40257403247ae009a3ef80f69c92671f8bacc99071e5e83f8692d3ce97fcb940000000000000000000000000898d4234e7f7b27a568f7966a714b73e50e10315c001a06ae186cf0665f6f8a0c7943121bfa937ceee8acf868c06d7fb54262e5cfe3e5aa04be7d5527c12e6e89c2398b2e03da3759456856357ca760c2bd858d7995c64f2", info={ "error": { "code": 32001, "message": "[Request ID: 445b8abb-bd8f-40f0-8551-ab6c90797916] Nonce too low. Provided nonce: 96, current nonce: 98" } }, code=NONCE_EXPIRED, version=6.16.0)
[otp] authorize failed pour BT-TEST-1774166138603: nonce has already been used (transaction="0x02f8b6820128628601176592e0008601176592e000830493e094e0138399f66aed2e178a7e9ce6b58f0d6fab244b80b8444d89084b864e71ef751f6dee31b24d738f009426c74b9be558b96af4352172fec0c5d26c000000000000000000000000898d4234e7f7b27a568f7966a714b73e50e10315c001a0a17a547e830da016f5868e4656b60f1bc1fcc6ccf854b24d71f5d3a8cabc54e7a03aea3762b65bab08d5e8aa8580aac1c36e2fdbb6cf6bd2ab85289828d6099ef6", info={ "error": { "code": 32001, "message": "[Request ID: 1da612e8-3b93-4a9e-b88e-f297c3766d30] Nonce too low. Provided nonce: 98, current nonce: 99" } }, code=NONCE_EXPIRED, version=6.16.0)
[otp] authorize failed pour BT-TEST-1774165674183: nonce has already been used (transaction="0x02f8b6820128608601176592e0008601176592e000830493e094e0138399f66aed2e178a7e9ce6b58f0d6fab244b80b8444d89084bf24b6683a03f9aaf6dc34be68f3ade61faad2b719606266d4238648dea44bed5000000000000000000000000898d4234e7f7b27a568f7966a714b73e50e10315c080a0e5febf8e5c5f8114570c45e0705581042c610bf35ec8ae3c3d68836890231749a057280cfa000577fc9df6e88c5956abe3d4406509d492bd607d88490b49860423", info={ "error": { "code": 32001, "message": "[Request ID: 031cf575-8561-4b93-ba7e-236e8dd3ca16] Nonce too low. Provided nonce: 96, current nonce: 98" } }, code=NONCE_EXPIRED, version=6.16.0)
[otp] authorize failed pour BT-TEST-1774165920597: nonce has already been used (transaction="0x02f8b6820128608601176592e0008601176592e000830493e094e0138399f66aed2e178a7e9ce6b58f0d6fab244b80b8444d89084b7a022c9a3a8dcfe020ce4622d679c56a2adb4eeb3a78b03f71e2fceec5d6405b000000000000000000000000898d4234e7f7b27a568f7966a714b73e50e10315c001a095aed5dd397662283158248a5505c6fc70732aaa865e8a67bb1296bb23334613a017492d6ba23e209a293c6a88bd34b3f40914555cb099f4a573b1ede40ed410b5", info={ "error": { "code": 32001, "message": "[Request ID: f6441672-27d2-4e60-acd4-f1954d67fb68] Nonce too low. Provided nonce: 96, current nonce: 99" } }, code=NONCE_EXPIRED, version=6.16.0)
[otp] authorize failed pour BT-TEST-1774166138603: nonce has already been used (transaction="0x02f8b6820128608601176592e0008601176592e000830493e094e0138399f66aed2e178a7e9ce6b58f0d6fab244b80b8444d89084b864e71ef751f6dee31b24d738f009426c74b9be558b96af4352172fec0c5d26c000000000000000000000000898d4234e7f7b27a568f7966a714b73e50e10315c080a0fc6ff0f9bcbfba7dd4b6d0cec47998a601a33ba6c2a6947b00a01f9383014984a05e94fa552ee29b73213169dc7bde4a06f1d4a1436f720d0cf6fd653bac6f4888", info={ "error": { "code": 32001, "message": "[Request ID: 0c5dad71-7961-47c9-a078-15685d64f0e7] Nonce too low. Provided nonce: 96, current nonce: 98" } }, code=NONCE_EXPIRED, version=6.16.0)
[otp] authorize failed pour BT-TEST-1774179797193: nonce has already been used (transaction="0x02f8b6820128608601176592e0008601176592e000830493e094e0138399f66aed2e178a7e9ce6b58f0d6fab244b80b8444d89084bef25a62b9f8ace70221e5b5f82634e666ec6054e2221b781a4167ba7e512fbc2000000000000000000000000898d4234e7f7b27a568f7966a714b73e50e10315c001a07b09b2d19b4bef16724bab659e20dffd20ab73568683dcc715186bfc06e35127a02ac5e0f17aaa84cac74d85c61375d6189bdd9a5d93c1a20c0bf92d8f46012e44", info={ "error": { "code": 32001, "message": "[Request ID: 54003353-6a07-4c04-b2b6-1cc12c626ce7] Nonce too low. Provided nonce: 96, current nonce: 99" } }, code=NONCE_EXPIRED, version=6.16.0)
[authorize-test] done
[otp] authorize(0xef25a62b9f8ace70221e5b5f82634e666ec6054e2221b781a4167ba7e512fbc2, 0x898d4234E7f7b27A568f7966a714b73e50e10315) OK — batch BT-TEST-1774179797193
[authorize-test] done
[hts] Minted 50000 ARGN — 0.0.5876043@1774179882.942027114 — status: SUCCESS
[hts] Transferred 50000 ARGN to 0x898d4234E7f7b27A568f7966a714b73e50e10315 — 0.0.5876043@1774179884.630897452 — status: SUCCESS
[confirm-redeem] HTS mint+transfer OK {
  mintTxId: '0.0.5876043@1774179882.942027114',
  transferTxId: '0.0.5876043@1774179884.630897452',
  hashscanMint: 'https://hashscan.io/testnet/transaction/0-0.5876043-1774179882-942027114',
  hashscanTransfer: 'https://hashscan.io/testnet/transaction/0-0.5876043-1774179884-630897452'
}
[hcs] ✓ allocation_redeemed publié
[hts] Minted 50000 ARGN — 0.0.5876043@1774179899.104452253 — status: SUCCESS
[hts] Transferred 50000 ARGN to 0x898d4234E7f7b27A568f7966a714b73e50e10315 — 0.0.5876043@1774179900.543892772 — status: SUCCESS
[confirm-redeem] HTS mint+transfer OK {
  mintTxId: '0.0.5876043@1774179899.104452253',
  transferTxId: '0.0.5876043@1774179900.543892772',
  hashscanMint: 'https://hashscan.io/testnet/transaction/0-0.5876043-1774179899-104452253',
  hashscanTransfer: 'https://hashscan.io/testnet/transaction/0-0.5876043-1774179900-543892772'
}
[hcs] ✓ allocation_redeemed publié
[authorize-test] phone: +33767190110 wallet: 0x898d4234E7f7b27A568f7966a714b73e50e10315
[authorizeClaimsOnChain] registryAddress: 0xE0138399F66aeD2e178A7e9CE6b58F0d6fAb244B
[authorizeClaimsOnChain] claims trouvés: 8
[otp] authorize(0x4c01196c0ff456f6ccebba1526c275f15042eca795ea9329db041d811cae32f4, 0x898d4234E7f7b27A568f7966a714b73e50e10315) OK — batch BT-TEST-001
[otp] authorize(0x487482406592444f653756818abdc8e9cefb07a05b5db09a2ebc5ca71d9d31b2, 0x898d4234E7f7b27A568f7966a714b73e50e10315) OK — batch BT-UI-TEST-1774093930
[otp] authorize(0xd5dbb7a799272fb89ede5a881bdc0460f5bf3f5f8987037c338f36739ab167f3, 0x898d4234E7f7b27A568f7966a714b73e50e10315) OK — batch BT-DEBUG-001
[otp] authorize(0xfab387cd6afa83c558f97e7c4cd997083161945f7bdb72db4da36c021f7f127c, 0x898d4234E7f7b27A568f7966a714b73e50e10315) OK — batch BT-TEST-1774098023277
[otp] authorize(0x40257403247ae009a3ef80f69c92671f8bacc99071e5e83f8692d3ce97fcb940, 0x898d4234E7f7b27A568f7966a714b73e50e10315) OK — batch BT-TEST-1774099374424
[otp] authorize(0xf24b6683a03f9aaf6dc34be68f3ade61faad2b719606266d4238648dea44bed5, 0x898d4234E7f7b27A568f7966a714b73e50e10315) OK — batch BT-TEST-1774165674183
[otp] authorize(0x7a022c9a3a8dcfe020ce4622d679c56a2adb4eeb3a78b03f71e2fceec5d6405b, 0x898d4234E7f7b27A568f7966a714b73e50e10315) OK — batch BT-TEST-1774165920597
[otp] authorize(0x864e71ef751f6dee31b24d738f009426c74b9be558b96af4352172fec0c5d26c, 0x898d4234E7f7b27A568f7966a714b73e50e10315) OK — batch BT-TEST-1774166138603
[authorize-test] done
[hts] Minted 5 ARGN — 0.0.5876043@1774180000.776404243 — status: SUCCESS
[hts] Transferred 5 ARGN to 0x898d4234E7f7b27A568f7966a714b73e50e10315 — 0.0.5876043@1774180000.590098257 — status: SUCCESS
[confirm-redeem] HTS mint+transfer OK {
  mintTxId: '0.0.5876043@1774180000.776404243',
  transferTxId: '0.0.5876043@1774180000.590098257',
  hashscanMint: 'https://hashscan.io/testnet/transaction/0-0.5876043-1774180000-776404243',
  hashscanTransfer: 'https://hashscan.io/testnet/transaction/0-0.5876043-1774180000-590098257'
}
[hcs] ✓ allocation_redeemed publié
[hcs] ✓ repo_borrow_request_created publié
